{
	"PriceConverter.sol": {
		"PriceConverter": {
			"abi": [
				{
					"inputs": [
						{
							"internalType": "uint256",
							"name": "ethAmount",
							"type": "uint256"
						}
					],
					"name": "valueConvert",
					"outputs": [
						{
							"internalType": "uint256",
							"name": "",
							"type": "uint256"
						}
					],
					"stateMutability": "view",
					"type": "function"
				}
			],
			"devdoc": {
				"kind": "dev",
				"methods": {},
				"version": 1
			},
			"evm": {
				"assembly": "    /* \"PriceConverter.sol\":179:1091  library PriceConverter{... */\n  dataSize(sub_0)\n  dataOffset(sub_0)\n  0x0b\n  dup3\n  dup3\n  dup3\n  codecopy\n  dup1\n  mload\n  0x00\n  byte\n  0x73\n  eq\n  tag_1\n  jumpi\n  mstore(0x00, 0x4e487b7100000000000000000000000000000000000000000000000000000000)\n  mstore(0x04, 0x00)\n  revert(0x00, 0x24)\ntag_1:\n  mstore(0x00, address)\n  0x73\n  dup2\n  mstore8\n  dup3\n  dup2\n  return\nstop\n\nsub_0: assembly {\n        /* \"PriceConverter.sol\":179:1091  library PriceConverter{... */\n      eq(address, deployTimeAddress())\n      mstore(0x40, 0x80)\n      jumpi(tag_1, lt(calldatasize, 0x04))\n      shr(0xe0, calldataload(0x00))\n      dup1\n      0x6bc2dbe2\n      eq\n      tag_2\n      jumpi\n    tag_1:\n      revert(0x00, 0x00)\n        /* \"PriceConverter.sol\":669:909  function    valueConvert( uint256 ethAmount ) public view returns( uint256 ){... */\n    tag_2:\n      tag_3\n      0x04\n      dup1\n      calldatasize\n      sub\n      dup2\n      add\n      swap1\n      tag_4\n      swap2\n      swap1\n      tag_5\n      jump\t// in\n    tag_4:\n      tag_6\n      jump\t// in\n    tag_3:\n      mload(0x40)\n      tag_7\n      swap2\n      swap1\n      tag_8\n      jump\t// in\n    tag_7:\n      mload(0x40)\n      dup1\n      swap2\n      sub\n      swap1\n      return\n    tag_6:\n        /* \"PriceConverter.sol\":736:743  uint256 */\n      0x00\n        /* \"PriceConverter.sol\":764:777  uint256 price */\n      0x00\n        /* \"PriceConverter.sol\":780:803  getPriceFromInterface() */\n      tag_10\n        /* \"PriceConverter.sol\":780:801  getPriceFromInterface */\n      tag_11\n        /* \"PriceConverter.sol\":780:803  getPriceFromInterface() */\n      jump\t// in\n    tag_10:\n        /* \"PriceConverter.sol\":764:803  uint256 price = getPriceFromInterface() */\n      swap1\n      pop\n        /* \"PriceConverter.sol\":813:833  uint256 ethAmountUSD */\n      0x00\n        /* \"PriceConverter.sol\":860:864  1e18 */\n      0x0de0b6b3a7640000\n        /* \"PriceConverter.sol\":846:855  ethAmount */\n      dup5\n        /* \"PriceConverter.sol\":838:843  price */\n      dup4\n        /* \"PriceConverter.sol\":838:855  price * ethAmount */\n      tag_12\n      swap2\n      swap1\n      tag_13\n      jump\t// in\n    tag_12:\n        /* \"PriceConverter.sol\":836:864  ( price * ethAmount ) / 1e18 */\n      tag_14\n      swap2\n      swap1\n      tag_15\n      jump\t// in\n    tag_14:\n        /* \"PriceConverter.sol\":813:864  uint256 ethAmountUSD = ( price * ethAmount ) / 1e18 */\n      swap1\n      pop\n        /* \"PriceConverter.sol\":888:900  ethAmountUSD */\n      dup1\n        /* \"PriceConverter.sol\":879:902  return ( ethAmountUSD ) */\n      swap3\n      pop\n      pop\n      pop\n        /* \"PriceConverter.sol\":669:909  function    valueConvert( uint256 ethAmount ) public view returns( uint256 ){... */\n      swap2\n      swap1\n      pop\n      jump\t// out\n        /* \"PriceConverter.sol\":208:663  function    getPriceFromInterface() internal view returns ( uint256 ){... */\n    tag_11:\n        /* \"PriceConverter.sol\":268:275  uint256 */\n      0x00\n        /* \"PriceConverter.sol\":288:316  int256                 price */\n      0x00\n        /* \"PriceConverter.sol\":326:361  AggregatorV3Interface  contractLink */\n      0x00\n        /* \"PriceConverter.sol\":386:428  0x694AA1769357215DE4FAC081bf1f309aDC325306 */\n      0x694aa1769357215de4fac081bf1f309adc325306\n        /* \"PriceConverter.sol\":326:429  AggregatorV3Interface  contractLink = AggregatorV3Interface(0x694AA1769357215DE4FAC081bf1f309aDC325306) */\n      swap1\n      pop\n        /* \"PriceConverter.sol\":523:535  contractLink */\n      dup1\n        /* \"PriceConverter.sol\":523:551  contractLink.latestRoundData */\n      0xffffffffffffffffffffffffffffffffffffffff\n      and\n      0xfeaf968c\n        /* \"PriceConverter.sol\":523:553  contractLink.latestRoundData() */\n      mload(0x40)\n      dup2\n      0xffffffff\n      and\n      0xe0\n      shl\n      dup2\n      mstore\n      0x04\n      add\n      0xa0\n      mload(0x40)\n      dup1\n      dup4\n      sub\n      dup2\n      dup7\n      gas\n      staticcall\n      iszero\n      dup1\n      iszero\n      tag_18\n      jumpi\n      returndatacopy(0x00, 0x00, returndatasize)\n      revert(0x00, returndatasize)\n    tag_18:\n      pop\n      pop\n      pop\n      pop\n      mload(0x40)\n      returndatasize\n      not(0x1f)\n      0x1f\n      dup3\n      add\n      and\n      dup3\n      add\n      dup1\n      0x40\n      mstore\n      pop\n      dup2\n      add\n      swap1\n      tag_19\n      swap2\n      swap1\n      tag_20\n      jump\t// in\n    tag_19:\n        /* \"PriceConverter.sol\":448:553  (... */\n      swap1\n      swap2\n      swap3\n      swap4\n      pop\n      swap1\n      swap2\n      pop\n      swap1\n      pop\n      pop\n      dup1\n      swap3\n      pop\n      pop\n        /* \"PriceConverter.sol\":581:582  0 */\n      0x00\n        /* \"PriceConverter.sol\":572:577  price */\n      dup3\n        /* \"PriceConverter.sol\":572:582  price >= 0 */\n      slt\n      iszero\n        /* \"PriceConverter.sol\":563:612  require( price >= 0, \"ETH price is less than 0\" ) */\n      tag_21\n      jumpi\n      mload(0x40)\n      0x08c379a000000000000000000000000000000000000000000000000000000000\n      dup2\n      mstore\n      0x04\n      add\n      tag_22\n      swap1\n      tag_23\n      jump\t// in\n    tag_22:\n      mload(0x40)\n      dup1\n      swap2\n      sub\n      swap1\n      revert\n    tag_21:\n        /* \"PriceConverter.sol\":648:652  1e10 */\n      0x02540be400\n        /* \"PriceConverter.sol\":640:645  price */\n      dup3\n        /* \"PriceConverter.sol\":640:652  price * 1e10 */\n      tag_24\n      swap2\n      swap1\n      tag_25\n      jump\t// in\n    tag_24:\n        /* \"PriceConverter.sol\":622:656  return ( uint256( price * 1e10 ) ) */\n      swap3\n      pop\n      pop\n      pop\n        /* \"PriceConverter.sol\":208:663  function    getPriceFromInterface() internal view returns ( uint256 ){... */\n      swap1\n      jump\t// out\n        /* \"#utility.yul\":88:205   */\n    tag_27:\n        /* \"#utility.yul\":197:198   */\n      0x00\n        /* \"#utility.yul\":194:195   */\n      0x00\n        /* \"#utility.yul\":187:199   */\n      revert\n        /* \"#utility.yul\":334:411   */\n    tag_29:\n        /* \"#utility.yul\":371:378   */\n      0x00\n        /* \"#utility.yul\":400:405   */\n      dup2\n        /* \"#utility.yul\":389:405   */\n      swap1\n      pop\n        /* \"#utility.yul\":334:411   */\n      swap2\n      swap1\n      pop\n      jump\t// out\n        /* \"#utility.yul\":417:539   */\n    tag_30:\n        /* \"#utility.yul\":490:514   */\n      tag_51\n        /* \"#utility.yul\":508:513   */\n      dup2\n        /* \"#utility.yul\":490:514   */\n      tag_29\n      jump\t// in\n    tag_51:\n        /* \"#utility.yul\":483:488   */\n      dup2\n        /* \"#utility.yul\":480:515   */\n      eq\n        /* \"#utility.yul\":470:533   */\n      tag_52\n      jumpi\n        /* \"#utility.yul\":529:530   */\n      0x00\n        /* \"#utility.yul\":526:527   */\n      0x00\n        /* \"#utility.yul\":519:531   */\n      revert\n        /* \"#utility.yul\":470:533   */\n    tag_52:\n        /* \"#utility.yul\":417:539   */\n      pop\n      jump\t// out\n        /* \"#utility.yul\":545:684   */\n    tag_31:\n        /* \"#utility.yul\":591:596   */\n      0x00\n        /* \"#utility.yul\":629:635   */\n      dup2\n        /* \"#utility.yul\":616:636   */\n      calldataload\n        /* \"#utility.yul\":607:636   */\n      swap1\n      pop\n        /* \"#utility.yul\":645:678   */\n      tag_54\n        /* \"#utility.yul\":672:677   */\n      dup2\n        /* \"#utility.yul\":645:678   */\n      tag_30\n      jump\t// in\n    tag_54:\n        /* \"#utility.yul\":545:684   */\n      swap3\n      swap2\n      pop\n      pop\n      jump\t// out\n        /* \"#utility.yul\":690:1019   */\n    tag_5:\n        /* \"#utility.yul\":749:755   */\n      0x00\n        /* \"#utility.yul\":798:800   */\n      0x20\n        /* \"#utility.yul\":786:795   */\n      dup3\n        /* \"#utility.yul\":777:784   */\n      dup5\n        /* \"#utility.yul\":773:796   */\n      sub\n        /* \"#utility.yul\":769:801   */\n      slt\n        /* \"#utility.yul\":766:885   */\n      iszero\n      tag_56\n      jumpi\n        /* \"#utility.yul\":804:883   */\n      tag_57\n      tag_27\n      jump\t// in\n    tag_57:\n        /* \"#utility.yul\":766:885   */\n    tag_56:\n        /* \"#utility.yul\":924:925   */\n      0x00\n        /* \"#utility.yul\":949:1002   */\n      tag_58\n        /* \"#utility.yul\":994:1001   */\n      dup5\n        /* \"#utility.yul\":985:991   */\n      dup3\n        /* \"#utility.yul\":974:983   */\n      dup6\n        /* \"#utility.yul\":970:992   */\n      add\n        /* \"#utility.yul\":949:1002   */\n      tag_31\n      jump\t// in\n    tag_58:\n        /* \"#utility.yul\":939:1002   */\n      swap2\n      pop\n        /* \"#utility.yul\":895:1012   */\n      pop\n        /* \"#utility.yul\":690:1019   */\n      swap3\n      swap2\n      pop\n      pop\n      jump\t// out\n        /* \"#utility.yul\":1025:1151   */\n    tag_32:\n        /* \"#utility.yul\":1120:1144   */\n      tag_60\n        /* \"#utility.yul\":1138:1143   */\n      dup2\n        /* \"#utility.yul\":1120:1144   */\n      tag_29\n      jump\t// in\n    tag_60:\n        /* \"#utility.yul\":1115:1118   */\n      dup3\n        /* \"#utility.yul\":1108:1145   */\n      mstore\n        /* \"#utility.yul\":1025:1151   */\n      pop\n      pop\n      jump\t// out\n        /* \"#utility.yul\":1157:1395   */\n    tag_8:\n        /* \"#utility.yul\":1258:1262   */\n      0x00\n        /* \"#utility.yul\":1296:1298   */\n      0x20\n        /* \"#utility.yul\":1285:1294   */\n      dup3\n        /* \"#utility.yul\":1281:1299   */\n      add\n        /* \"#utility.yul\":1273:1299   */\n      swap1\n      pop\n        /* \"#utility.yul\":1309:1388   */\n      tag_62\n        /* \"#utility.yul\":1385:1386   */\n      0x00\n        /* \"#utility.yul\":1374:1383   */\n      dup4\n        /* \"#utility.yul\":1370:1387   */\n      add\n        /* \"#utility.yul\":1361:1367   */\n      dup5\n        /* \"#utility.yul\":1309:1388   */\n      tag_32\n      jump\t// in\n    tag_62:\n        /* \"#utility.yul\":1157:1395   */\n      swap3\n      swap2\n      pop\n      pop\n      jump\t// out\n        /* \"#utility.yul\":1401:1581   */\n    tag_33:\n        /* \"#utility.yul\":1449:1526   */\n      0x4e487b7100000000000000000000000000000000000000000000000000000000\n        /* \"#utility.yul\":1446:1447   */\n      0x00\n        /* \"#utility.yul\":1439:1527   */\n      mstore\n        /* \"#utility.yul\":1546:1550   */\n      0x11\n        /* \"#utility.yul\":1543:1544   */\n      0x04\n        /* \"#utility.yul\":1536:1551   */\n      mstore\n        /* \"#utility.yul\":1570:1574   */\n      0x24\n        /* \"#utility.yul\":1567:1568   */\n      0x00\n        /* \"#utility.yul\":1560:1575   */\n      revert\n        /* \"#utility.yul\":1587:1997   */\n    tag_13:\n        /* \"#utility.yul\":1627:1634   */\n      0x00\n        /* \"#utility.yul\":1650:1670   */\n      tag_65\n        /* \"#utility.yul\":1668:1669   */\n      dup3\n        /* \"#utility.yul\":1650:1670   */\n      tag_29\n      jump\t// in\n    tag_65:\n        /* \"#utility.yul\":1645:1670   */\n      swap2\n      pop\n        /* \"#utility.yul\":1684:1704   */\n      tag_66\n        /* \"#utility.yul\":1702:1703   */\n      dup4\n        /* \"#utility.yul\":1684:1704   */\n      tag_29\n      jump\t// in\n    tag_66:\n        /* \"#utility.yul\":1679:1704   */\n      swap3\n      pop\n        /* \"#utility.yul\":1739:1740   */\n      dup3\n        /* \"#utility.yul\":1736:1737   */\n      dup3\n        /* \"#utility.yul\":1732:1741   */\n      mul\n        /* \"#utility.yul\":1761:1791   */\n      tag_67\n        /* \"#utility.yul\":1779:1790   */\n      dup2\n        /* \"#utility.yul\":1761:1791   */\n      tag_29\n      jump\t// in\n    tag_67:\n        /* \"#utility.yul\":1750:1791   */\n      swap2\n      pop\n        /* \"#utility.yul\":1940:1941   */\n      dup3\n        /* \"#utility.yul\":1931:1938   */\n      dup3\n        /* \"#utility.yul\":1927:1942   */\n      div\n        /* \"#utility.yul\":1924:1925   */\n      dup5\n        /* \"#utility.yul\":1921:1943   */\n      eq\n        /* \"#utility.yul\":1901:1902   */\n      dup4\n        /* \"#utility.yul\":1894:1903   */\n      iszero\n        /* \"#utility.yul\":1874:1957   */\n      or\n        /* \"#utility.yul\":1851:1990   */\n      tag_68\n      jumpi\n        /* \"#utility.yul\":1970:1988   */\n      tag_69\n      tag_33\n      jump\t// in\n    tag_69:\n        /* \"#utility.yul\":1851:1990   */\n    tag_68:\n        /* \"#utility.yul\":1635:1997   */\n      pop\n        /* \"#utility.yul\":1587:1997   */\n      swap3\n      swap2\n      pop\n      pop\n      jump\t// out\n        /* \"#utility.yul\":2003:2183   */\n    tag_34:\n        /* \"#utility.yul\":2051:2128   */\n      0x4e487b7100000000000000000000000000000000000000000000000000000000\n        /* \"#utility.yul\":2048:2049   */\n      0x00\n        /* \"#utility.yul\":2041:2129   */\n      mstore\n        /* \"#utility.yul\":2148:2152   */\n      0x12\n        /* \"#utility.yul\":2145:2146   */\n      0x04\n        /* \"#utility.yul\":2138:2153   */\n      mstore\n        /* \"#utility.yul\":2172:2176   */\n      0x24\n        /* \"#utility.yul\":2169:2170   */\n      0x00\n        /* \"#utility.yul\":2162:2177   */\n      revert\n        /* \"#utility.yul\":2189:2374   */\n    tag_15:\n        /* \"#utility.yul\":2229:2230   */\n      0x00\n        /* \"#utility.yul\":2246:2266   */\n      tag_72\n        /* \"#utility.yul\":2264:2265   */\n      dup3\n        /* \"#utility.yul\":2246:2266   */\n      tag_29\n      jump\t// in\n    tag_72:\n        /* \"#utility.yul\":2241:2266   */\n      swap2\n      pop\n        /* \"#utility.yul\":2280:2300   */\n      tag_73\n        /* \"#utility.yul\":2298:2299   */\n      dup4\n        /* \"#utility.yul\":2280:2300   */\n      tag_29\n      jump\t// in\n    tag_73:\n        /* \"#utility.yul\":2275:2300   */\n      swap3\n      pop\n        /* \"#utility.yul\":2319:2320   */\n      dup3\n        /* \"#utility.yul\":2309:2344   */\n      tag_74\n      jumpi\n        /* \"#utility.yul\":2324:2342   */\n      tag_75\n      tag_34\n      jump\t// in\n    tag_75:\n        /* \"#utility.yul\":2309:2344   */\n    tag_74:\n        /* \"#utility.yul\":2366:2367   */\n      dup3\n        /* \"#utility.yul\":2363:2364   */\n      dup3\n        /* \"#utility.yul\":2359:2368   */\n      div\n        /* \"#utility.yul\":2354:2368   */\n      swap1\n      pop\n        /* \"#utility.yul\":2189:2374   */\n      swap3\n      swap2\n      pop\n      pop\n      jump\t// out\n        /* \"#utility.yul\":2380:2485   */\n    tag_35:\n        /* \"#utility.yul\":2416:2423   */\n      0x00\n        /* \"#utility.yul\":2456:2478   */\n      0xffffffffffffffffffff\n        /* \"#utility.yul\":2449:2454   */\n      dup3\n        /* \"#utility.yul\":2445:2479   */\n      and\n        /* \"#utility.yul\":2434:2479   */\n      swap1\n      pop\n        /* \"#utility.yul\":2380:2485   */\n      swap2\n      swap1\n      pop\n      jump\t// out\n        /* \"#utility.yul\":2491:2611   */\n    tag_36:\n        /* \"#utility.yul\":2563:2586   */\n      tag_78\n        /* \"#utility.yul\":2580:2585   */\n      dup2\n        /* \"#utility.yul\":2563:2586   */\n      tag_35\n      jump\t// in\n    tag_78:\n        /* \"#utility.yul\":2556:2561   */\n      dup2\n        /* \"#utility.yul\":2553:2587   */\n      eq\n        /* \"#utility.yul\":2543:2605   */\n      tag_79\n      jumpi\n        /* \"#utility.yul\":2601:2602   */\n      0x00\n        /* \"#utility.yul\":2598:2599   */\n      0x00\n        /* \"#utility.yul\":2591:2603   */\n      revert\n        /* \"#utility.yul\":2543:2605   */\n    tag_79:\n        /* \"#utility.yul\":2491:2611   */\n      pop\n      jump\t// out\n        /* \"#utility.yul\":2617:2758   */\n    tag_37:\n        /* \"#utility.yul\":2673:2678   */\n      0x00\n        /* \"#utility.yul\":2704:2710   */\n      dup2\n        /* \"#utility.yul\":2698:2711   */\n      mload\n        /* \"#utility.yul\":2689:2711   */\n      swap1\n      pop\n        /* \"#utility.yul\":2720:2752   */\n      tag_81\n        /* \"#utility.yul\":2746:2751   */\n      dup2\n        /* \"#utility.yul\":2720:2752   */\n      tag_36\n      jump\t// in\n    tag_81:\n        /* \"#utility.yul\":2617:2758   */\n      swap3\n      swap2\n      pop\n      pop\n      jump\t// out\n        /* \"#utility.yul\":2764:2840   */\n    tag_38:\n        /* \"#utility.yul\":2800:2807   */\n      0x00\n        /* \"#utility.yul\":2829:2834   */\n      dup2\n        /* \"#utility.yul\":2818:2834   */\n      swap1\n      pop\n        /* \"#utility.yul\":2764:2840   */\n      swap2\n      swap1\n      pop\n      jump\t// out\n        /* \"#utility.yul\":2846:2966   */\n    tag_39:\n        /* \"#utility.yul\":2918:2941   */\n      tag_84\n        /* \"#utility.yul\":2935:2940   */\n      dup2\n        /* \"#utility.yul\":2918:2941   */\n      tag_38\n      jump\t// in\n    tag_84:\n        /* \"#utility.yul\":2911:2916   */\n      dup2\n        /* \"#utility.yul\":2908:2942   */\n      eq\n        /* \"#utility.yul\":2898:2960   */\n      tag_85\n      jumpi\n        /* \"#utility.yul\":2956:2957   */\n      0x00\n        /* \"#utility.yul\":2953:2954   */\n      0x00\n        /* \"#utility.yul\":2946:2958   */\n      revert\n        /* \"#utility.yul\":2898:2960   */\n    tag_85:\n        /* \"#utility.yul\":2846:2966   */\n      pop\n      jump\t// out\n        /* \"#utility.yul\":2972:3113   */\n    tag_40:\n        /* \"#utility.yul\":3028:3033   */\n      0x00\n        /* \"#utility.yul\":3059:3065   */\n      dup2\n        /* \"#utility.yul\":3053:3066   */\n      mload\n        /* \"#utility.yul\":3044:3066   */\n      swap1\n      pop\n        /* \"#utility.yul\":3075:3107   */\n      tag_87\n        /* \"#utility.yul\":3101:3106   */\n      dup2\n        /* \"#utility.yul\":3075:3107   */\n      tag_39\n      jump\t// in\n    tag_87:\n        /* \"#utility.yul\":2972:3113   */\n      swap3\n      swap2\n      pop\n      pop\n      jump\t// out\n        /* \"#utility.yul\":3119:3262   */\n    tag_41:\n        /* \"#utility.yul\":3176:3181   */\n      0x00\n        /* \"#utility.yul\":3207:3213   */\n      dup2\n        /* \"#utility.yul\":3201:3214   */\n      mload\n        /* \"#utility.yul\":3192:3214   */\n      swap1\n      pop\n        /* \"#utility.yul\":3223:3256   */\n      tag_89\n        /* \"#utility.yul\":3250:3255   */\n      dup2\n        /* \"#utility.yul\":3223:3256   */\n      tag_30\n      jump\t// in\n    tag_89:\n        /* \"#utility.yul\":3119:3262   */\n      swap3\n      swap2\n      pop\n      pop\n      jump\t// out\n        /* \"#utility.yul\":3268:4239   */\n    tag_20:\n        /* \"#utility.yul\":3371:3377   */\n      0x00\n        /* \"#utility.yul\":3379:3385   */\n      0x00\n        /* \"#utility.yul\":3387:3393   */\n      0x00\n        /* \"#utility.yul\":3395:3401   */\n      0x00\n        /* \"#utility.yul\":3403:3409   */\n      0x00\n        /* \"#utility.yul\":3452:3455   */\n      0xa0\n        /* \"#utility.yul\":3440:3449   */\n      dup7\n        /* \"#utility.yul\":3431:3438   */\n      dup9\n        /* \"#utility.yul\":3427:3450   */\n      sub\n        /* \"#utility.yul\":3423:3456   */\n      slt\n        /* \"#utility.yul\":3420:3540   */\n      iszero\n      tag_91\n      jumpi\n        /* \"#utility.yul\":3459:3538   */\n      tag_92\n      tag_27\n      jump\t// in\n    tag_92:\n        /* \"#utility.yul\":3420:3540   */\n    tag_91:\n        /* \"#utility.yul\":3579:3580   */\n      0x00\n        /* \"#utility.yul\":3604:3667   */\n      tag_93\n        /* \"#utility.yul\":3659:3666   */\n      dup9\n        /* \"#utility.yul\":3650:3656   */\n      dup3\n        /* \"#utility.yul\":3639:3648   */\n      dup10\n        /* \"#utility.yul\":3635:3657   */\n      add\n        /* \"#utility.yul\":3604:3667   */\n      tag_37\n      jump\t// in\n    tag_93:\n        /* \"#utility.yul\":3594:3667   */\n      swap6\n      pop\n        /* \"#utility.yul\":3550:3677   */\n      pop\n        /* \"#utility.yul\":3716:3718   */\n      0x20\n        /* \"#utility.yul\":3742:3805   */\n      tag_94\n        /* \"#utility.yul\":3797:3804   */\n      dup9\n        /* \"#utility.yul\":3788:3794   */\n      dup3\n        /* \"#utility.yul\":3777:3786   */\n      dup10\n        /* \"#utility.yul\":3773:3795   */\n      add\n        /* \"#utility.yul\":3742:3805   */\n      tag_40\n      jump\t// in\n    tag_94:\n        /* \"#utility.yul\":3732:3805   */\n      swap5\n      pop\n        /* \"#utility.yul\":3687:3815   */\n      pop\n        /* \"#utility.yul\":3854:3856   */\n      0x40\n        /* \"#utility.yul\":3880:3944   */\n      tag_95\n        /* \"#utility.yul\":3936:3943   */\n      dup9\n        /* \"#utility.yul\":3927:3933   */\n      dup3\n        /* \"#utility.yul\":3916:3925   */\n      dup10\n        /* \"#utility.yul\":3912:3934   */\n      add\n        /* \"#utility.yul\":3880:3944   */\n      tag_41\n      jump\t// in\n    tag_95:\n        /* \"#utility.yul\":3870:3944   */\n      swap4\n      pop\n        /* \"#utility.yul\":3825:3954   */\n      pop\n        /* \"#utility.yul\":3993:3995   */\n      0x60\n        /* \"#utility.yul\":4019:4083   */\n      tag_96\n        /* \"#utility.yul\":4075:4082   */\n      dup9\n        /* \"#utility.yul\":4066:4072   */\n      dup3\n        /* \"#utility.yul\":4055:4064   */\n      dup10\n        /* \"#utility.yul\":4051:4073   */\n      add\n        /* \"#utility.yul\":4019:4083   */\n      tag_41\n      jump\t// in\n    tag_96:\n        /* \"#utility.yul\":4009:4083   */\n      swap3\n      pop\n        /* \"#utility.yul\":3964:4093   */\n      pop\n        /* \"#utility.yul\":4132:4135   */\n      0x80\n        /* \"#utility.yul\":4159:4222   */\n      tag_97\n        /* \"#utility.yul\":4214:4221   */\n      dup9\n        /* \"#utility.yul\":4205:4211   */\n      dup3\n        /* \"#utility.yul\":4194:4203   */\n      dup10\n        /* \"#utility.yul\":4190:4212   */\n      add\n        /* \"#utility.yul\":4159:4222   */\n      tag_37\n      jump\t// in\n    tag_97:\n        /* \"#utility.yul\":4149:4222   */\n      swap2\n      pop\n        /* \"#utility.yul\":4103:4232   */\n      pop\n        /* \"#utility.yul\":3268:4239   */\n      swap3\n      swap6\n      pop\n      swap3\n      swap6\n      swap1\n      swap4\n      pop\n      jump\t// out\n        /* \"#utility.yul\":4245:4414   */\n    tag_42:\n        /* \"#utility.yul\":4329:4340   */\n      0x00\n        /* \"#utility.yul\":4363:4369   */\n      dup3\n        /* \"#utility.yul\":4358:4361   */\n      dup3\n        /* \"#utility.yul\":4351:4370   */\n      mstore\n        /* \"#utility.yul\":4403:4407   */\n      0x20\n        /* \"#utility.yul\":4398:4401   */\n      dup3\n        /* \"#utility.yul\":4394:4408   */\n      add\n        /* \"#utility.yul\":4379:4408   */\n      swap1\n      pop\n        /* \"#utility.yul\":4245:4414   */\n      swap3\n      swap2\n      pop\n      pop\n      jump\t// out\n        /* \"#utility.yul\":4420:4594   */\n    tag_43:\n        /* \"#utility.yul\":4560:4586   */\n      0x455448207072696365206973206c657373207468616e20300000000000000000\n        /* \"#utility.yul\":4556:4557   */\n      0x00\n        /* \"#utility.yul\":4548:4554   */\n      dup3\n        /* \"#utility.yul\":4544:4558   */\n      add\n        /* \"#utility.yul\":4537:4587   */\n      mstore\n        /* \"#utility.yul\":4420:4594   */\n      pop\n      jump\t// out\n        /* \"#utility.yul\":4600:4966   */\n    tag_44:\n        /* \"#utility.yul\":4742:4745   */\n      0x00\n        /* \"#utility.yul\":4763:4830   */\n      tag_101\n        /* \"#utility.yul\":4827:4829   */\n      0x18\n        /* \"#utility.yul\":4822:4825   */\n      dup4\n        /* \"#utility.yul\":4763:4830   */\n      tag_42\n      jump\t// in\n    tag_101:\n        /* \"#utility.yul\":4756:4830   */\n      swap2\n      pop\n        /* \"#utility.yul\":4839:4932   */\n      tag_102\n        /* \"#utility.yul\":4928:4931   */\n      dup3\n        /* \"#utility.yul\":4839:4932   */\n      tag_43\n      jump\t// in\n    tag_102:\n        /* \"#utility.yul\":4957:4959   */\n      0x20\n        /* \"#utility.yul\":4952:4955   */\n      dup3\n        /* \"#utility.yul\":4948:4960   */\n      add\n        /* \"#utility.yul\":4941:4960   */\n      swap1\n      pop\n        /* \"#utility.yul\":4600:4966   */\n      swap2\n      swap1\n      pop\n      jump\t// out\n        /* \"#utility.yul\":4972:5391   */\n    tag_23:\n        /* \"#utility.yul\":5138:5142   */\n      0x00\n        /* \"#utility.yul\":5176:5178   */\n      0x20\n        /* \"#utility.yul\":5165:5174   */\n      dup3\n        /* \"#utility.yul\":5161:5179   */\n      add\n        /* \"#utility.yul\":5153:5179   */\n      swap1\n      pop\n        /* \"#utility.yul\":5225:5234   */\n      dup2\n        /* \"#utility.yul\":5219:5223   */\n      dup2\n        /* \"#utility.yul\":5215:5235   */\n      sub\n        /* \"#utility.yul\":5211:5212   */\n      0x00\n        /* \"#utility.yul\":5200:5209   */\n      dup4\n        /* \"#utility.yul\":5196:5213   */\n      add\n        /* \"#utility.yul\":5189:5236   */\n      mstore\n        /* \"#utility.yul\":5253:5384   */\n      tag_104\n        /* \"#utility.yul\":5379:5383   */\n      dup2\n        /* \"#utility.yul\":5253:5384   */\n      tag_44\n      jump\t// in\n    tag_104:\n        /* \"#utility.yul\":5245:5384   */\n      swap1\n      pop\n        /* \"#utility.yul\":4972:5391   */\n      swap2\n      swap1\n      pop\n      jump\t// out\n        /* \"#utility.yul\":5397:5953   */\n    tag_25:\n        /* \"#utility.yul\":5436:5443   */\n      0x00\n        /* \"#utility.yul\":5459:5478   */\n      tag_106\n        /* \"#utility.yul\":5476:5477   */\n      dup3\n        /* \"#utility.yul\":5459:5478   */\n      tag_38\n      jump\t// in\n    tag_106:\n        /* \"#utility.yul\":5454:5478   */\n      swap2\n      pop\n        /* \"#utility.yul\":5492:5511   */\n      tag_107\n        /* \"#utility.yul\":5509:5510   */\n      dup4\n        /* \"#utility.yul\":5492:5511   */\n      tag_38\n      jump\t// in\n    tag_107:\n        /* \"#utility.yul\":5487:5511   */\n      swap3\n      pop\n        /* \"#utility.yul\":5546:5547   */\n      dup3\n        /* \"#utility.yul\":5543:5544   */\n      dup3\n        /* \"#utility.yul\":5539:5548   */\n      mul\n        /* \"#utility.yul\":5568:5597   */\n      tag_108\n        /* \"#utility.yul\":5585:5596   */\n      dup2\n        /* \"#utility.yul\":5568:5597   */\n      tag_38\n      jump\t// in\n    tag_108:\n        /* \"#utility.yul\":5557:5597   */\n      swap2\n      pop\n        /* \"#utility.yul\":5655:5721   */\n      0x8000000000000000000000000000000000000000000000000000000000000000\n        /* \"#utility.yul\":5652:5653   */\n      dup5\n        /* \"#utility.yul\":5649:5722   */\n      eq\n        /* \"#utility.yul\":5645:5646   */\n      0x00\n        /* \"#utility.yul\":5642:5643   */\n      dup5\n        /* \"#utility.yul\":5638:5647   */\n      slt\n        /* \"#utility.yul\":5634:5723   */\n      and\n        /* \"#utility.yul\":5631:5746   */\n      iszero\n      tag_109\n      jumpi\n        /* \"#utility.yul\":5726:5744   */\n      tag_110\n      tag_33\n      jump\t// in\n    tag_110:\n        /* \"#utility.yul\":5631:5746   */\n    tag_109:\n        /* \"#utility.yul\":5896:5897   */\n      dup3\n        /* \"#utility.yul\":5887:5894   */\n      dup3\n        /* \"#utility.yul\":5882:5898   */\n      sdiv\n        /* \"#utility.yul\":5879:5880   */\n      dup5\n        /* \"#utility.yul\":5876:5899   */\n      eq\n        /* \"#utility.yul\":5856:5857   */\n      dup4\n        /* \"#utility.yul\":5849:5858   */\n      iszero\n        /* \"#utility.yul\":5829:5913   */\n      or\n        /* \"#utility.yul\":5806:5946   */\n      tag_111\n      jumpi\n        /* \"#utility.yul\":5926:5944   */\n      tag_112\n      tag_33\n      jump\t// in\n    tag_112:\n        /* \"#utility.yul\":5806:5946   */\n    tag_111:\n        /* \"#utility.yul\":5444:5953   */\n      pop\n        /* \"#utility.yul\":5397:5953   */\n      swap3\n      swap2\n      pop\n      pop\n      jump\t// out\n\n    auxdata: 0xa26469706673582212205f3f5b4cb90ea375e85caa8230783c479b96de5ca73a247983cb075ba339dfd464736f6c634300081e0033\n}\n",
				"bytecode": {
					"linkReferences": {},
					"object": "61050761004d600b8282823980515f1a6073146041577f4e487b71000000000000000000000000000000000000000000000000000000005f525f60045260245ffd5b305f52607381538281f3fe7300000000000000000000000000000000000000003014608060405260043610610034575f3560e01c80636bc2dbe214610038575b5f5ffd5b610052600480360381019061004d91906101c8565b610068565b60405161005f9190610202565b60405180910390f35b5f5f6100726100a0565b90505f670de0b6b3a7640000848361008a9190610248565b61009491906102b6565b90508092505050919050565b5f5f5f73694aa1769357215de4fac081bf1f309adc32530690508073ffffffffffffffffffffffffffffffffffffffff1663feaf968c6040518163ffffffff1660e01b815260040160a060405180830381865afa158015610103573d5f5f3e3d5ffd5b505050506040513d601f19601f82011682018060405250810190610127919061036c565b9091929350909150905050809250505f821215610179576040517f08c379a00000000000000000000000000000000000000000000000000000000081526004016101709061043d565b60405180910390fd5b6402540be4008261018a919061045b565b9250505090565b5f5ffd5b5f819050919050565b6101a781610195565b81146101b1575f5ffd5b50565b5f813590506101c28161019e565b92915050565b5f602082840312156101dd576101dc610191565b5b5f6101ea848285016101b4565b91505092915050565b6101fc81610195565b82525050565b5f6020820190506102155f8301846101f3565b92915050565b7f4e487b71000000000000000000000000000000000000000000000000000000005f52601160045260245ffd5b5f61025282610195565b915061025d83610195565b925082820261026b81610195565b915082820484148315176102825761028161021b565b5b5092915050565b7f4e487b71000000000000000000000000000000000000000000000000000000005f52601260045260245ffd5b5f6102c082610195565b91506102cb83610195565b9250826102db576102da610289565b5b828204905092915050565b5f69ffffffffffffffffffff82169050919050565b610304816102e6565b811461030e575f5ffd5b50565b5f8151905061031f816102fb565b92915050565b5f819050919050565b61033781610325565b8114610341575f5ffd5b50565b5f815190506103528161032e565b92915050565b5f815190506103668161019e565b92915050565b5f5f5f5f5f60a0868803121561038557610384610191565b5b5f61039288828901610311565b95505060206103a388828901610344565b94505060406103b488828901610358565b93505060606103c588828901610358565b92505060806103d688828901610311565b9150509295509295909350565b5f82825260208201905092915050565b7f455448207072696365206973206c657373207468616e203000000000000000005f82015250565b5f6104276018836103e3565b9150610432826103f3565b602082019050919050565b5f6020820190508181035f8301526104548161041b565b9050919050565b5f61046582610325565b915061047083610325565b925082820261047e81610325565b91507f800000000000000000000000000000000000000000000000000000000000000084145f841216156104b5576104b461021b565b5b82820584148315176104ca576104c961021b565b5b509291505056fea26469706673582212205f3f5b4cb90ea375e85caa8230783c479b96de5ca73a247983cb075ba339dfd464736f6c634300081e0033",
					"opcodes": "PUSH2 0x507 PUSH2 0x4D PUSH1 0xB DUP3 DUP3 DUP3 CODECOPY DUP1 MLOAD PUSH0 BYTE PUSH1 0x73 EQ PUSH1 0x41 JUMPI PUSH32 0x4E487B7100000000000000000000000000000000000000000000000000000000 PUSH0 MSTORE PUSH0 PUSH1 0x4 MSTORE PUSH1 0x24 PUSH0 REVERT JUMPDEST ADDRESS PUSH0 MSTORE PUSH1 0x73 DUP2 MSTORE8 DUP3 DUP2 RETURN INVALID PUSH20 0x0 ADDRESS EQ PUSH1 0x80 PUSH1 0x40 MSTORE PUSH1 0x4 CALLDATASIZE LT PUSH2 0x34 JUMPI PUSH0 CALLDATALOAD PUSH1 0xE0 SHR DUP1 PUSH4 0x6BC2DBE2 EQ PUSH2 0x38 JUMPI JUMPDEST PUSH0 PUSH0 REVERT JUMPDEST PUSH2 0x52 PUSH1 0x4 DUP1 CALLDATASIZE SUB DUP2 ADD SWAP1 PUSH2 0x4D SWAP2 SWAP1 PUSH2 0x1C8 JUMP JUMPDEST PUSH2 0x68 JUMP JUMPDEST PUSH1 0x40 MLOAD PUSH2 0x5F SWAP2 SWAP1 PUSH2 0x202 JUMP JUMPDEST PUSH1 0x40 MLOAD DUP1 SWAP2 SUB SWAP1 RETURN JUMPDEST PUSH0 PUSH0 PUSH2 0x72 PUSH2 0xA0 JUMP JUMPDEST SWAP1 POP PUSH0 PUSH8 0xDE0B6B3A7640000 DUP5 DUP4 PUSH2 0x8A SWAP2 SWAP1 PUSH2 0x248 JUMP JUMPDEST PUSH2 0x94 SWAP2 SWAP1 PUSH2 0x2B6 JUMP JUMPDEST SWAP1 POP DUP1 SWAP3 POP POP POP SWAP2 SWAP1 POP JUMP JUMPDEST PUSH0 PUSH0 PUSH0 PUSH20 0x694AA1769357215DE4FAC081BF1F309ADC325306 SWAP1 POP DUP1 PUSH20 0xFFFFFFFFFFFFFFFFFFFFFFFFFFFFFFFFFFFFFFFF AND PUSH4 0xFEAF968C PUSH1 0x40 MLOAD DUP2 PUSH4 0xFFFFFFFF AND PUSH1 0xE0 SHL DUP2 MSTORE PUSH1 0x4 ADD PUSH1 0xA0 PUSH1 0x40 MLOAD DUP1 DUP4 SUB DUP2 DUP7 GAS STATICCALL ISZERO DUP1 ISZERO PUSH2 0x103 JUMPI RETURNDATASIZE PUSH0 PUSH0 RETURNDATACOPY RETURNDATASIZE PUSH0 REVERT JUMPDEST POP POP POP POP PUSH1 0x40 MLOAD RETURNDATASIZE PUSH1 0x1F NOT PUSH1 0x1F DUP3 ADD AND DUP3 ADD DUP1 PUSH1 0x40 MSTORE POP DUP2 ADD SWAP1 PUSH2 0x127 SWAP2 SWAP1 PUSH2 0x36C JUMP JUMPDEST SWAP1 SWAP2 SWAP3 SWAP4 POP SWAP1 SWAP2 POP SWAP1 POP POP DUP1 SWAP3 POP POP PUSH0 DUP3 SLT ISZERO PUSH2 0x179 JUMPI PUSH1 0x40 MLOAD PUSH32 0x8C379A000000000000000000000000000000000000000000000000000000000 DUP2 MSTORE PUSH1 0x4 ADD PUSH2 0x170 SWAP1 PUSH2 0x43D JUMP JUMPDEST PUSH1 0x40 MLOAD DUP1 SWAP2 SUB SWAP1 REVERT JUMPDEST PUSH5 0x2540BE400 DUP3 PUSH2 0x18A SWAP2 SWAP1 PUSH2 0x45B JUMP JUMPDEST SWAP3 POP POP POP SWAP1 JUMP JUMPDEST PUSH0 PUSH0 REVERT JUMPDEST PUSH0 DUP2 SWAP1 POP SWAP2 SWAP1 POP JUMP JUMPDEST PUSH2 0x1A7 DUP2 PUSH2 0x195 JUMP JUMPDEST DUP2 EQ PUSH2 0x1B1 JUMPI PUSH0 PUSH0 REVERT JUMPDEST POP JUMP JUMPDEST PUSH0 DUP2 CALLDATALOAD SWAP1 POP PUSH2 0x1C2 DUP2 PUSH2 0x19E JUMP JUMPDEST SWAP3 SWAP2 POP POP JUMP JUMPDEST PUSH0 PUSH1 0x20 DUP3 DUP5 SUB SLT ISZERO PUSH2 0x1DD JUMPI PUSH2 0x1DC PUSH2 0x191 JUMP JUMPDEST JUMPDEST PUSH0 PUSH2 0x1EA DUP5 DUP3 DUP6 ADD PUSH2 0x1B4 JUMP JUMPDEST SWAP2 POP POP SWAP3 SWAP2 POP POP JUMP JUMPDEST PUSH2 0x1FC DUP2 PUSH2 0x195 JUMP JUMPDEST DUP3 MSTORE POP POP JUMP JUMPDEST PUSH0 PUSH1 0x20 DUP3 ADD SWAP1 POP PUSH2 0x215 PUSH0 DUP4 ADD DUP5 PUSH2 0x1F3 JUMP JUMPDEST SWAP3 SWAP2 POP POP JUMP JUMPDEST PUSH32 0x4E487B7100000000000000000000000000000000000000000000000000000000 PUSH0 MSTORE PUSH1 0x11 PUSH1 0x4 MSTORE PUSH1 0x24 PUSH0 REVERT JUMPDEST PUSH0 PUSH2 0x252 DUP3 PUSH2 0x195 JUMP JUMPDEST SWAP2 POP PUSH2 0x25D DUP4 PUSH2 0x195 JUMP JUMPDEST SWAP3 POP DUP3 DUP3 MUL PUSH2 0x26B DUP2 PUSH2 0x195 JUMP JUMPDEST SWAP2 POP DUP3 DUP3 DIV DUP5 EQ DUP4 ISZERO OR PUSH2 0x282 JUMPI PUSH2 0x281 PUSH2 0x21B JUMP JUMPDEST JUMPDEST POP SWAP3 SWAP2 POP POP JUMP JUMPDEST PUSH32 0x4E487B7100000000000000000000000000000000000000000000000000000000 PUSH0 MSTORE PUSH1 0x12 PUSH1 0x4 MSTORE PUSH1 0x24 PUSH0 REVERT JUMPDEST PUSH0 PUSH2 0x2C0 DUP3 PUSH2 0x195 JUMP JUMPDEST SWAP2 POP PUSH2 0x2CB DUP4 PUSH2 0x195 JUMP JUMPDEST SWAP3 POP DUP3 PUSH2 0x2DB JUMPI PUSH2 0x2DA PUSH2 0x289 JUMP JUMPDEST JUMPDEST DUP3 DUP3 DIV SWAP1 POP SWAP3 SWAP2 POP POP JUMP JUMPDEST PUSH0 PUSH10 0xFFFFFFFFFFFFFFFFFFFF DUP3 AND SWAP1 POP SWAP2 SWAP1 POP JUMP JUMPDEST PUSH2 0x304 DUP2 PUSH2 0x2E6 JUMP JUMPDEST DUP2 EQ PUSH2 0x30E JUMPI PUSH0 PUSH0 REVERT JUMPDEST POP JUMP JUMPDEST PUSH0 DUP2 MLOAD SWAP1 POP PUSH2 0x31F DUP2 PUSH2 0x2FB JUMP JUMPDEST SWAP3 SWAP2 POP POP JUMP JUMPDEST PUSH0 DUP2 SWAP1 POP SWAP2 SWAP1 POP JUMP JUMPDEST PUSH2 0x337 DUP2 PUSH2 0x325 JUMP JUMPDEST DUP2 EQ PUSH2 0x341 JUMPI PUSH0 PUSH0 REVERT JUMPDEST POP JUMP JUMPDEST PUSH0 DUP2 MLOAD SWAP1 POP PUSH2 0x352 DUP2 PUSH2 0x32E JUMP JUMPDEST SWAP3 SWAP2 POP POP JUMP JUMPDEST PUSH0 DUP2 MLOAD SWAP1 POP PUSH2 0x366 DUP2 PUSH2 0x19E JUMP JUMPDEST SWAP3 SWAP2 POP POP JUMP JUMPDEST PUSH0 PUSH0 PUSH0 PUSH0 PUSH0 PUSH1 0xA0 DUP7 DUP9 SUB SLT ISZERO PUSH2 0x385 JUMPI PUSH2 0x384 PUSH2 0x191 JUMP JUMPDEST JUMPDEST PUSH0 PUSH2 0x392 DUP9 DUP3 DUP10 ADD PUSH2 0x311 JUMP JUMPDEST SWAP6 POP POP PUSH1 0x20 PUSH2 0x3A3 DUP9 DUP3 DUP10 ADD PUSH2 0x344 JUMP JUMPDEST SWAP5 POP POP PUSH1 0x40 PUSH2 0x3B4 DUP9 DUP3 DUP10 ADD PUSH2 0x358 JUMP JUMPDEST SWAP4 POP POP PUSH1 0x60 PUSH2 0x3C5 DUP9 DUP3 DUP10 ADD PUSH2 0x358 JUMP JUMPDEST SWAP3 POP POP PUSH1 0x80 PUSH2 0x3D6 DUP9 DUP3 DUP10 ADD PUSH2 0x311 JUMP JUMPDEST SWAP2 POP POP SWAP3 SWAP6 POP SWAP3 SWAP6 SWAP1 SWAP4 POP JUMP JUMPDEST PUSH0 DUP3 DUP3 MSTORE PUSH1 0x20 DUP3 ADD SWAP1 POP SWAP3 SWAP2 POP POP JUMP JUMPDEST PUSH32 0x455448207072696365206973206C657373207468616E20300000000000000000 PUSH0 DUP3 ADD MSTORE POP JUMP JUMPDEST PUSH0 PUSH2 0x427 PUSH1 0x18 DUP4 PUSH2 0x3E3 JUMP JUMPDEST SWAP2 POP PUSH2 0x432 DUP3 PUSH2 0x3F3 JUMP JUMPDEST PUSH1 0x20 DUP3 ADD SWAP1 POP SWAP2 SWAP1 POP JUMP JUMPDEST PUSH0 PUSH1 0x20 DUP3 ADD SWAP1 POP DUP2 DUP2 SUB PUSH0 DUP4 ADD MSTORE PUSH2 0x454 DUP2 PUSH2 0x41B JUMP JUMPDEST SWAP1 POP SWAP2 SWAP1 POP JUMP JUMPDEST PUSH0 PUSH2 0x465 DUP3 PUSH2 0x325 JUMP JUMPDEST SWAP2 POP PUSH2 0x470 DUP4 PUSH2 0x325 JUMP JUMPDEST SWAP3 POP DUP3 DUP3 MUL PUSH2 0x47E DUP2 PUSH2 0x325 JUMP JUMPDEST SWAP2 POP PUSH32 0x8000000000000000000000000000000000000000000000000000000000000000 DUP5 EQ PUSH0 DUP5 SLT AND ISZERO PUSH2 0x4B5 JUMPI PUSH2 0x4B4 PUSH2 0x21B JUMP JUMPDEST JUMPDEST DUP3 DUP3 SDIV DUP5 EQ DUP4 ISZERO OR PUSH2 0x4CA JUMPI PUSH2 0x4C9 PUSH2 0x21B JUMP JUMPDEST JUMPDEST POP SWAP3 SWAP2 POP POP JUMP INVALID LOG2 PUSH5 0x6970667358 0x22 SLT KECCAK256 PUSH0 EXTCODEHASH JUMPDEST 0x4C 0xB9 0xE LOG3 PUSH22 0xE85CAA8230783C479B96DE5CA73A247983CB075BA339 0xDF 0xD4 PUSH5 0x736F6C6343 STOP ADDMOD 0x1E STOP CALLER "
				},
				"gasEstimates": {
					"creation": {
						"codeDepositCost": "257400",
						"executionCost": "323",
						"totalCost": "257723"
					},
					"external": {
						"valueConvert(uint256)": "infinite"
					},
					"internal": {
						"getBalanceUSD()": "infinite",
						"getPriceFromInterface()": "infinite"
					}
				},
				"methodIdentifiers": {
					"valueConvert(uint256)": "6bc2dbe2"
				}
			},
			"storageLayout": {
				"storage": [],
				"types": null
			},
			"userdoc": {
				"kind": "user",
				"methods": {},
				"version": 1
			}
		}
	}
}